{
  "_format": "hh-sol-artifact-1",
  "contractName": "Ter",
  "sourceName": "contracts/Ter.sol",
  "abi": [
    {
      "inputs": [],
      "stateMutability": "nonpayable",
      "type": "constructor"
    },
    {
      "inputs": [
        {
          "internalType": "address",
          "name": "spender",
          "type": "address"
        },
        {
          "internalType": "uint256",
          "name": "allowance",
          "type": "uint256"
        },
        {
          "internalType": "uint256",
          "name": "needed",
          "type": "uint256"
        }
      ],
      "name": "ERC20InsufficientAllowance",
      "type": "error"
    },
    {
      "inputs": [
        {
          "internalType": "address",
          "name": "sender",
          "type": "address"
        },
        {
          "internalType": "uint256",
          "name": "balance",
          "type": "uint256"
        },
        {
          "internalType": "uint256",
          "name": "needed",
          "type": "uint256"
        }
      ],
      "name": "ERC20InsufficientBalance",
      "type": "error"
    },
    {
      "inputs": [
        {
          "internalType": "address",
          "name": "approver",
          "type": "address"
        }
      ],
      "name": "ERC20InvalidApprover",
      "type": "error"
    },
    {
      "inputs": [
        {
          "internalType": "address",
          "name": "receiver",
          "type": "address"
        }
      ],
      "name": "ERC20InvalidReceiver",
      "type": "error"
    },
    {
      "inputs": [
        {
          "internalType": "address",
          "name": "sender",
          "type": "address"
        }
      ],
      "name": "ERC20InvalidSender",
      "type": "error"
    },
    {
      "inputs": [
        {
          "internalType": "address",
          "name": "spender",
          "type": "address"
        }
      ],
      "name": "ERC20InvalidSpender",
      "type": "error"
    },
    {
      "inputs": [
        {
          "internalType": "address",
          "name": "owner",
          "type": "address"
        }
      ],
      "name": "OwnableInvalidOwner",
      "type": "error"
    },
    {
      "inputs": [
        {
          "internalType": "address",
          "name": "account",
          "type": "address"
        }
      ],
      "name": "OwnableUnauthorizedAccount",
      "type": "error"
    },
    {
      "anonymous": false,
      "inputs": [
        {
          "indexed": true,
          "internalType": "address",
          "name": "owner",
          "type": "address"
        },
        {
          "indexed": true,
          "internalType": "address",
          "name": "spender",
          "type": "address"
        },
        {
          "indexed": false,
          "internalType": "uint256",
          "name": "value",
          "type": "uint256"
        }
      ],
      "name": "Approval",
      "type": "event"
    },
    {
      "anonymous": false,
      "inputs": [
        {
          "indexed": true,
          "internalType": "address",
          "name": "previousOwner",
          "type": "address"
        },
        {
          "indexed": true,
          "internalType": "address",
          "name": "newOwner",
          "type": "address"
        }
      ],
      "name": "OwnershipTransferred",
      "type": "event"
    },
    {
      "anonymous": false,
      "inputs": [
        {
          "indexed": true,
          "internalType": "address",
          "name": "from",
          "type": "address"
        },
        {
          "indexed": true,
          "internalType": "address",
          "name": "to",
          "type": "address"
        },
        {
          "indexed": false,
          "internalType": "uint256",
          "name": "value",
          "type": "uint256"
        }
      ],
      "name": "Transfer",
      "type": "event"
    },
    {
      "inputs": [
        {
          "internalType": "address",
          "name": "owner",
          "type": "address"
        },
        {
          "internalType": "address",
          "name": "spender",
          "type": "address"
        }
      ],
      "name": "allowance",
      "outputs": [
        {
          "internalType": "uint256",
          "name": "",
          "type": "uint256"
        }
      ],
      "stateMutability": "view",
      "type": "function"
    },
    {
      "inputs": [
        {
          "internalType": "address",
          "name": "spender",
          "type": "address"
        },
        {
          "internalType": "uint256",
          "name": "value",
          "type": "uint256"
        }
      ],
      "name": "approve",
      "outputs": [
        {
          "internalType": "bool",
          "name": "",
          "type": "bool"
        }
      ],
      "stateMutability": "nonpayable",
      "type": "function"
    },
    {
      "inputs": [
        {
          "internalType": "address",
          "name": "account",
          "type": "address"
        }
      ],
      "name": "balanceOf",
      "outputs": [
        {
          "internalType": "uint256",
          "name": "",
          "type": "uint256"
        }
      ],
      "stateMutability": "view",
      "type": "function"
    },
    {
      "inputs": [
        {
          "internalType": "uint256",
          "name": "amount",
          "type": "uint256"
        }
      ],
      "name": "burn",
      "outputs": [],
      "stateMutability": "nonpayable",
      "type": "function"
    },
    {
      "inputs": [],
      "name": "decimals",
      "outputs": [
        {
          "internalType": "uint8",
          "name": "",
          "type": "uint8"
        }
      ],
      "stateMutability": "view",
      "type": "function"
    },
    {
      "inputs": [
        {
          "internalType": "uint256",
          "name": "amount",
          "type": "uint256"
        }
      ],
      "name": "mint",
      "outputs": [],
      "stateMutability": "nonpayable",
      "type": "function"
    },
    {
      "inputs": [],
      "name": "name",
      "outputs": [
        {
          "internalType": "string",
          "name": "",
          "type": "string"
        }
      ],
      "stateMutability": "view",
      "type": "function"
    },
    {
      "inputs": [],
      "name": "owner",
      "outputs": [
        {
          "internalType": "address",
          "name": "",
          "type": "address"
        }
      ],
      "stateMutability": "view",
      "type": "function"
    },
    {
      "inputs": [],
      "name": "renounceOwnership",
      "outputs": [],
      "stateMutability": "nonpayable",
      "type": "function"
    },
    {
      "inputs": [],
      "name": "symbol",
      "outputs": [
        {
          "internalType": "string",
          "name": "",
          "type": "string"
        }
      ],
      "stateMutability": "view",
      "type": "function"
    },
    {
      "inputs": [],
      "name": "totalSupply",
      "outputs": [
        {
          "internalType": "uint256",
          "name": "",
          "type": "uint256"
        }
      ],
      "stateMutability": "view",
      "type": "function"
    },
    {
      "inputs": [
        {
          "internalType": "address",
          "name": "to",
          "type": "address"
        },
        {
          "internalType": "uint256",
          "name": "value",
          "type": "uint256"
        }
      ],
      "name": "transfer",
      "outputs": [
        {
          "internalType": "bool",
          "name": "",
          "type": "bool"
        }
      ],
      "stateMutability": "nonpayable",
      "type": "function"
    },
    {
      "inputs": [
        {
          "internalType": "address",
          "name": "from",
          "type": "address"
        },
        {
          "internalType": "address",
          "name": "to",
          "type": "address"
        },
        {
          "internalType": "uint256",
          "name": "value",
          "type": "uint256"
        }
      ],
      "name": "transferFrom",
      "outputs": [
        {
          "internalType": "bool",
          "name": "",
          "type": "bool"
        }
      ],
      "stateMutability": "nonpayable",
      "type": "function"
    },
    {
      "inputs": [
        {
          "internalType": "address",
          "name": "newOwner",
          "type": "address"
        }
      ],
      "name": "transferOwnership",
      "outputs": [],
      "stateMutability": "nonpayable",
      "type": "function"
    }
  ],
  "bytecode": "0x608060405234801561001057600080fd5b50336040518060400160405280601881526020017f526f79616c204d6f6e657461727920417574686f7269747900000000000000008152506040518060400160405280600381526020017f5465720000000000000000000000000000000000000000000000000000000000815250816003908161008d919061072a565b50806004908161009d919061072a565b505050600073ffffffffffffffffffffffffffffffffffffffff168173ffffffffffffffffffffffffffffffffffffffff16036101125760006040517f1e4fbdf7000000000000000000000000000000000000000000000000000000008152600401610109919061083d565b60405180910390fd5b6101218161015e60201b60201c565b506101593361013461022460201b60201c565b600a61014091906109c7565b620f424061014e9190610a12565b61022d60201b60201c565b610ae9565b6000600560009054906101000a900473ffffffffffffffffffffffffffffffffffffffff16905081600560006101000a81548173ffffffffffffffffffffffffffffffffffffffff021916908373ffffffffffffffffffffffffffffffffffffffff1602179055508173ffffffffffffffffffffffffffffffffffffffff168173ffffffffffffffffffffffffffffffffffffffff167f8be0079c531659141344cd1fd0a4f28419497f9722a3daafe3b4186f6b6457e060405160405180910390a35050565b60006012905090565b600073ffffffffffffffffffffffffffffffffffffffff168273ffffffffffffffffffffffffffffffffffffffff160361029f5760006040517fec442f05000000000000000000000000000000000000000000000000000000008152600401610296919061083d565b60405180910390fd5b6102b1600083836102b560201b60201c565b5050565b600073ffffffffffffffffffffffffffffffffffffffff168373ffffffffffffffffffffffffffffffffffffffff16036103075780600260008282546102fb9190610a54565b925050819055506103da565b60008060008573ffffffffffffffffffffffffffffffffffffffff1673ffffffffffffffffffffffffffffffffffffffff16815260200190815260200160002054905081811015610393578381836040517fe450d38c00000000000000000000000000000000000000000000000000000000815260040161038a93929190610a97565b60405180910390fd5b8181036000808673ffffffffffffffffffffffffffffffffffffffff1673ffffffffffffffffffffffffffffffffffffffff16815260200190815260200160002081905550505b600073ffffffffffffffffffffffffffffffffffffffff168273ffffffffffffffffffffffffffffffffffffffff16036104235780600260008282540392505081905550610470565b806000808473ffffffffffffffffffffffffffffffffffffffff1673ffffffffffffffffffffffffffffffffffffffff168152602001908152602001600020600082825401925050819055505b8173ffffffffffffffffffffffffffffffffffffffff168373ffffffffffffffffffffffffffffffffffffffff167fddf252ad1be2c89b69c2b068fc378daa952ba7f163c4a11628f55a4df523b3ef836040516104cd9190610ace565b60405180910390a3505050565b600081519050919050565b7f4e487b7100000000000000000000000000000000000000000000000000000000600052604160045260246000fd5b7f4e487b7100000000000000000000000000000000000000000000000000000000600052602260045260246000fd5b6000600282049050600182168061055b57607f821691505b60208210810361056e5761056d610514565b5b50919050565b60008190508160005260206000209050919050565b60006020601f8301049050919050565b600082821b905092915050565b6000600883026105d67fffffffffffffffffffffffffffffffffffffffffffffffffffffffffffffffff82610599565b6105e08683610599565b95508019841693508086168417925050509392505050565b6000819050919050565b6000819050919050565b600061062761062261061d846105f8565b610602565b6105f8565b9050919050565b6000819050919050565b6106418361060c565b61065561064d8261062e565b8484546105a6565b825550505050565b600090565b61066a61065d565b610675818484610638565b505050565b5b818110156106995761068e600082610662565b60018101905061067b565b5050565b601f8211156106de576106af81610574565b6106b884610589565b810160208510156106c7578190505b6106db6106d385610589565b83018261067a565b50505b505050565b600082821c905092915050565b6000610701600019846008026106e3565b1980831691505092915050565b600061071a83836106f0565b9150826002028217905092915050565b610733826104da565b67ffffffffffffffff81111561074c5761074b6104e5565b5b6107568254610543565b61076182828561069d565b600060209050601f8311600181146107945760008415610782578287015190505b61078c858261070e565b8655506107f4565b601f1984166107a286610574565b60005b828110156107ca578489015182556001820191506020850194506020810190506107a5565b868310156107e757848901516107e3601f8916826106f0565b8355505b6001600288020188555050505b505050505050565b600073ffffffffffffffffffffffffffffffffffffffff82169050919050565b6000610827826107fc565b9050919050565b6108378161081c565b82525050565b6000602082019050610852600083018461082e565b92915050565b7f4e487b7100000000000000000000000000000000000000000000000000000000600052601160045260246000fd5b60008160011c9050919050565b6000808291508390505b60018511156108de578086048111156108ba576108b9610858565b5b60018516156108c95780820291505b80810290506108d785610887565b945061089e565b94509492505050565b6000826108f757600190506109b3565b8161090557600090506109b3565b816001811461091b576002811461092557610954565b60019150506109b3565b60ff84111561093757610936610858565b5b8360020a91508482111561094e5761094d610858565b5b506109b3565b5060208310610133831016604e8410600b84101617156109895782820a90508381111561098457610983610858565b5b6109b3565b6109968484846001610894565b925090508184048111156109ad576109ac610858565b5b81810290505b9392505050565b600060ff82169050919050565b60006109d2826105f8565b91506109dd836109ba565b9250610a0a7fffffffffffffffffffffffffffffffffffffffffffffffffffffffffffffffff84846108e7565b905092915050565b6000610a1d826105f8565b9150610a28836105f8565b9250828202610a36816105f8565b91508282048414831517610a4d57610a4c610858565b5b5092915050565b6000610a5f826105f8565b9150610a6a836105f8565b9250828201905080821115610a8257610a81610858565b5b92915050565b610a91816105f8565b82525050565b6000606082019050610aac600083018661082e565b610ab96020830185610a88565b610ac66040830184610a88565b949350505050565b6000602082019050610ae36000830184610a88565b92915050565b61129580610af86000396000f3fe608060405234801561001057600080fd5b50600436106100ea5760003560e01c8063715018a61161008c578063a0712d6811610066578063a0712d681461023b578063a9059cbb14610257578063dd62ed3e14610287578063f2fde38b146102b7576100ea565b8063715018a6146101f55780638da5cb5b146101ff57806395d89b411461021d576100ea565b806323b872dd116100c857806323b872dd1461015b578063313ce5671461018b57806342966c68146101a957806370a08231146101c5576100ea565b806306fdde03146100ef578063095ea7b31461010d57806318160ddd1461013d575b600080fd5b6100f76102d3565b6040516101049190610ebc565b60405180910390f35b61012760048036038101906101229190610f77565b610365565b6040516101349190610fd2565b60405180910390f35b610145610388565b6040516101529190610ffc565b60405180910390f35b61017560048036038101906101709190611017565b610392565b6040516101829190610fd2565b60405180910390f35b6101936103c1565b6040516101a09190611086565b60405180910390f35b6101c360048036038101906101be91906110a1565b6103ca565b005b6101df60048036038101906101da91906110ce565b6103df565b6040516101ec9190610ffc565b60405180910390f35b6101fd610427565b005b61020761043b565b604051610214919061110a565b60405180910390f35b610225610465565b6040516102329190610ebc565b60405180910390f35b610255600480360381019061025091906110a1565b6104f7565b005b610271600480360381019061026c9190610f77565b61050c565b60405161027e9190610fd2565b60405180910390f35b6102a1600480360381019061029c9190611125565b61052f565b6040516102ae9190610ffc565b60405180910390f35b6102d160048036038101906102cc91906110ce565b6105b6565b005b6060600380546102e290611194565b80601f016020809104026020016040519081016040528092919081815260200182805461030e90611194565b801561035b5780601f106103305761010080835404028352916020019161035b565b820191906000526020600020905b81548152906001019060200180831161033e57829003601f168201915b5050505050905090565b60008061037061063c565b905061037d818585610644565b600191505092915050565b6000600254905090565b60008061039d61063c565b90506103aa858285610656565b6103b58585856106eb565b60019150509392505050565b60006012905090565b6103d26107df565b6103dc3382610866565b50565b60008060008373ffffffffffffffffffffffffffffffffffffffff1673ffffffffffffffffffffffffffffffffffffffff168152602001908152602001600020549050919050565b61042f6107df565b61043960006108e8565b565b6000600560009054906101000a900473ffffffffffffffffffffffffffffffffffffffff16905090565b60606004805461047490611194565b80601f01602080910402602001604051908101604052809291908181526020018280546104a090611194565b80156104ed5780601f106104c2576101008083540402835291602001916104ed565b820191906000526020600020905b8154815290600101906020018083116104d057829003601f168201915b5050505050905090565b6104ff6107df565b61050933826109ae565b50565b60008061051761063c565b90506105248185856106eb565b600191505092915050565b6000600160008473ffffffffffffffffffffffffffffffffffffffff1673ffffffffffffffffffffffffffffffffffffffff16815260200190815260200160002060008373ffffffffffffffffffffffffffffffffffffffff1673ffffffffffffffffffffffffffffffffffffffff16815260200190815260200160002054905092915050565b6105be6107df565b600073ffffffffffffffffffffffffffffffffffffffff168173ffffffffffffffffffffffffffffffffffffffff16036106305760006040517f1e4fbdf7000000000000000000000000000000000000000000000000000000008152600401610627919061110a565b60405180910390fd5b610639816108e8565b50565b600033905090565b6106518383836001610a30565b505050565b6000610662848461052f565b90507fffffffffffffffffffffffffffffffffffffffffffffffffffffffffffffffff8110156106e557818110156106d5578281836040517ffb8f41b20000000000000000000000000000000000000000000000000000000081526004016106cc939291906111c5565b60405180910390fd5b6106e484848484036000610a30565b5b50505050565b600073ffffffffffffffffffffffffffffffffffffffff168373ffffffffffffffffffffffffffffffffffffffff160361075d5760006040517f96c6fd1e000000000000000000000000000000000000000000000000000000008152600401610754919061110a565b60405180910390fd5b600073ffffffffffffffffffffffffffffffffffffffff168273ffffffffffffffffffffffffffffffffffffffff16036107cf5760006040517fec442f050000000000000000000000000000000000000000000000000000000081526004016107c6919061110a565b60405180910390fd5b6107da838383610c07565b505050565b6107e761063c565b73ffffffffffffffffffffffffffffffffffffffff1661080561043b565b73ffffffffffffffffffffffffffffffffffffffff16146108645761082861063c565b6040517f118cdaa700000000000000000000000000000000000000000000000000000000815260040161085b919061110a565b60405180910390fd5b565b600073ffffffffffffffffffffffffffffffffffffffff168273ffffffffffffffffffffffffffffffffffffffff16036108d85760006040517f96c6fd1e0000000000000000000000000000000000000000000000000000000081526004016108cf919061110a565b60405180910390fd5b6108e482600083610c07565b5050565b6000600560009054906101000a900473ffffffffffffffffffffffffffffffffffffffff16905081600560006101000a81548173ffffffffffffffffffffffffffffffffffffffff021916908373ffffffffffffffffffffffffffffffffffffffff1602179055508173ffffffffffffffffffffffffffffffffffffffff168173ffffffffffffffffffffffffffffffffffffffff167f8be0079c531659141344cd1fd0a4f28419497f9722a3daafe3b4186f6b6457e060405160405180910390a35050565b600073ffffffffffffffffffffffffffffffffffffffff168273ffffffffffffffffffffffffffffffffffffffff1603610a205760006040517fec442f05000000000000000000000000000000000000000000000000000000008152600401610a17919061110a565b60405180910390fd5b610a2c60008383610c07565b5050565b600073ffffffffffffffffffffffffffffffffffffffff168473ffffffffffffffffffffffffffffffffffffffff1603610aa25760006040517fe602df05000000000000000000000000000000000000000000000000000000008152600401610a99919061110a565b60405180910390fd5b600073ffffffffffffffffffffffffffffffffffffffff168373ffffffffffffffffffffffffffffffffffffffff1603610b145760006040517f94280d62000000000000000000000000000000000000000000000000000000008152600401610b0b919061110a565b60405180910390fd5b81600160008673ffffffffffffffffffffffffffffffffffffffff1673ffffffffffffffffffffffffffffffffffffffff16815260200190815260200160002060008573ffffffffffffffffffffffffffffffffffffffff1673ffffffffffffffffffffffffffffffffffffffff168152602001908152602001600020819055508015610c01578273ffffffffffffffffffffffffffffffffffffffff168473ffffffffffffffffffffffffffffffffffffffff167f8c5be1e5ebec7d5bd14f71427d1e84f3dd0314c0f7b2291e5b200ac8c7c3b92584604051610bf89190610ffc565b60405180910390a35b50505050565b600073ffffffffffffffffffffffffffffffffffffffff168373ffffffffffffffffffffffffffffffffffffffff1603610c59578060026000828254610c4d919061122b565b92505081905550610d2c565b60008060008573ffffffffffffffffffffffffffffffffffffffff1673ffffffffffffffffffffffffffffffffffffffff16815260200190815260200160002054905081811015610ce5578381836040517fe450d38c000000000000000000000000000000000000000000000000000000008152600401610cdc939291906111c5565b60405180910390fd5b8181036000808673ffffffffffffffffffffffffffffffffffffffff1673ffffffffffffffffffffffffffffffffffffffff16815260200190815260200160002081905550505b600073ffffffffffffffffffffffffffffffffffffffff168273ffffffffffffffffffffffffffffffffffffffff1603610d755780600260008282540392505081905550610dc2565b806000808473ffffffffffffffffffffffffffffffffffffffff1673ffffffffffffffffffffffffffffffffffffffff168152602001908152602001600020600082825401925050819055505b8173ffffffffffffffffffffffffffffffffffffffff168373ffffffffffffffffffffffffffffffffffffffff167fddf252ad1be2c89b69c2b068fc378daa952ba7f163c4a11628f55a4df523b3ef83604051610e1f9190610ffc565b60405180910390a3505050565b600081519050919050565b600082825260208201905092915050565b60005b83811015610e66578082015181840152602081019050610e4b565b60008484015250505050565b6000601f19601f8301169050919050565b6000610e8e82610e2c565b610e988185610e37565b9350610ea8818560208601610e48565b610eb181610e72565b840191505092915050565b60006020820190508181036000830152610ed68184610e83565b905092915050565b600080fd5b600073ffffffffffffffffffffffffffffffffffffffff82169050919050565b6000610f0e82610ee3565b9050919050565b610f1e81610f03565b8114610f2957600080fd5b50565b600081359050610f3b81610f15565b92915050565b6000819050919050565b610f5481610f41565b8114610f5f57600080fd5b50565b600081359050610f7181610f4b565b92915050565b60008060408385031215610f8e57610f8d610ede565b5b6000610f9c85828601610f2c565b9250506020610fad85828601610f62565b9150509250929050565b60008115159050919050565b610fcc81610fb7565b82525050565b6000602082019050610fe76000830184610fc3565b92915050565b610ff681610f41565b82525050565b60006020820190506110116000830184610fed565b92915050565b6000806000606084860312156110305761102f610ede565b5b600061103e86828701610f2c565b935050602061104f86828701610f2c565b925050604061106086828701610f62565b9150509250925092565b600060ff82169050919050565b6110808161106a565b82525050565b600060208201905061109b6000830184611077565b92915050565b6000602082840312156110b7576110b6610ede565b5b60006110c584828501610f62565b91505092915050565b6000602082840312156110e4576110e3610ede565b5b60006110f284828501610f2c565b91505092915050565b61110481610f03565b82525050565b600060208201905061111f60008301846110fb565b92915050565b6000806040838503121561113c5761113b610ede565b5b600061114a85828601610f2c565b925050602061115b85828601610f2c565b9150509250929050565b7f4e487b7100000000000000000000000000000000000000000000000000000000600052602260045260246000fd5b600060028204905060018216806111ac57607f821691505b6020821081036111bf576111be611165565b5b50919050565b60006060820190506111da60008301866110fb565b6111e76020830185610fed565b6111f46040830184610fed565b949350505050565b7f4e487b7100000000000000000000000000000000000000000000000000000000600052601160045260246000fd5b600061123682610f41565b915061124183610f41565b9250828201905080821115611259576112586111fc565b5b9291505056fea264697066735822122071a9ff90c0f22d4cb1bb1f6dcec3dcdc54ea2d261e2eb3c059b8676d012e362064736f6c634300081c0033",
  "linkReferences": {},
  "deployedLinkReferences": {}
}