{
    "_format": "hh-sol-artifact-1",
    "contractName": "TTPLNFT",
    "sourceName": "contracts/TTPLNFT.sol",
    "abi": [
        {
            "inputs": [],
            "stateMutability": "nonpayable",
            "type": "constructor"
        },
        {
            "inputs": [
                {
                    "internalType": "address",
                    "name": "sender",
                    "type": "address"
                },
                {
                    "internalType": "uint256",
                    "name": "tokenId",
                    "type": "uint256"
                },
                {
                    "internalType": "address",
                    "name": "owner",
                    "type": "address"
                }
            ],
            "name": "ERC721IncorrectOwner",
            "type": "error"
        },
        {
            "inputs": [
                {
                    "internalType": "address",
                    "name": "operator",
                    "type": "address"
                },
                {
                    "internalType": "uint256",
                    "name": "tokenId",
                    "type": "uint256"
                }
            ],
            "name": "ERC721InsufficientApproval",
            "type": "error"
        },
        {
            "inputs": [
                {
                    "internalType": "address",
                    "name": "approver",
                    "type": "address"
                }
            ],
            "name": "ERC721InvalidApprover",
            "type": "error"
        },
        {
            "inputs": [
                {
                    "internalType": "address",
                    "name": "operator",
                    "type": "address"
                }
            ],
            "name": "ERC721InvalidOperator",
            "type": "error"
        },
        {
            "inputs": [
                {
                    "internalType": "address",
                    "name": "owner",
                    "type": "address"
                }
            ],
            "name": "ERC721InvalidOwner",
            "type": "error"
        },
        {
            "inputs": [
                {
                    "internalType": "address",
                    "name": "receiver",
                    "type": "address"
                }
            ],
            "name": "ERC721InvalidReceiver",
            "type": "error"
        },
        {
            "inputs": [
                {
                    "internalType": "address",
                    "name": "sender",
                    "type": "address"
                }
            ],
            "name": "ERC721InvalidSender",
            "type": "error"
        },
        {
            "inputs": [
                {
                    "internalType": "uint256",
                    "name": "tokenId",
                    "type": "uint256"
                }
            ],
            "name": "ERC721NonexistentToken",
            "type": "error"
        },
        {
            "inputs": [
                {
                    "internalType": "address",
                    "name": "owner",
                    "type": "address"
                }
            ],
            "name": "OwnableInvalidOwner",
            "type": "error"
        },
        {
            "inputs": [
                {
                    "internalType": "address",
                    "name": "account",
                    "type": "address"
                }
            ],
            "name": "OwnableUnauthorizedAccount",
            "type": "error"
        },
        {
            "anonymous": false,
            "inputs": [
                {
                    "indexed": true,
                    "internalType": "address",
                    "name": "owner",
                    "type": "address"
                },
                {
                    "indexed": true,
                    "internalType": "address",
                    "name": "approved",
                    "type": "address"
                },
                {
                    "indexed": true,
                    "internalType": "uint256",
                    "name": "tokenId",
                    "type": "uint256"
                }
            ],
            "name": "Approval",
            "type": "event"
        },
        {
            "anonymous": false,
            "inputs": [
                {
                    "indexed": true,
                    "internalType": "address",
                    "name": "owner",
                    "type": "address"
                },
                {
                    "indexed": true,
                    "internalType": "address",
                    "name": "operator",
                    "type": "address"
                },
                {
                    "indexed": false,
                    "internalType": "bool",
                    "name": "approved",
                    "type": "bool"
                }
            ],
            "name": "ApprovalForAll",
            "type": "event"
        },
        {
            "anonymous": false,
            "inputs": [
                {
                    "indexed": false,
                    "internalType": "uint256",
                    "name": "_fromTokenId",
                    "type": "uint256"
                },
                {
                    "indexed": false,
                    "internalType": "uint256",
                    "name": "_toTokenId",
                    "type": "uint256"
                }
            ],
            "name": "BatchMetadataUpdate",
            "type": "event"
        },
        {
            "anonymous": false,
            "inputs": [
                {
                    "indexed": false,
                    "internalType": "uint256",
                    "name": "_tokenId",
                    "type": "uint256"
                }
            ],
            "name": "MetadataUpdate",
            "type": "event"
        },
        {
            "anonymous": false,
            "inputs": [
                {
                    "indexed": true,
                    "internalType": "address",
                    "name": "previousOwner",
                    "type": "address"
                },
                {
                    "indexed": true,
                    "internalType": "address",
                    "name": "newOwner",
                    "type": "address"
                }
            ],
            "name": "OwnershipTransferred",
            "type": "event"
        },
        {
            "anonymous": false,
            "inputs": [
                {
                    "indexed": true,
                    "internalType": "address",
                    "name": "from",
                    "type": "address"
                },
                {
                    "indexed": true,
                    "internalType": "address",
                    "name": "to",
                    "type": "address"
                },
                {
                    "indexed": true,
                    "internalType": "uint256",
                    "name": "tokenId",
                    "type": "uint256"
                }
            ],
            "name": "Transfer",
            "type": "event"
        },
        {
            "inputs": [
                {
                    "internalType": "address",
                    "name": "to",
                    "type": "address"
                },
                {
                    "internalType": "uint256",
                    "name": "tokenId",
                    "type": "uint256"
                }
            ],
            "name": "approve",
            "outputs": [],
            "stateMutability": "nonpayable",
            "type": "function"
        },
        {
            "inputs": [
                {
                    "internalType": "address",
                    "name": "owner",
                    "type": "address"
                }
            ],
            "name": "balanceOf",
            "outputs": [
                {
                    "internalType": "uint256",
                    "name": "",
                    "type": "uint256"
                }
            ],
            "stateMutability": "view",
            "type": "function"
        },
        {
            "inputs": [
                {
                    "internalType": "uint256",
                    "name": "tokenId",
                    "type": "uint256"
                }
            ],
            "name": "getApproved",
            "outputs": [
                {
                    "internalType": "address",
                    "name": "",
                    "type": "address"
                }
            ],
            "stateMutability": "view",
            "type": "function"
        },
        {
            "inputs": [
                {
                    "internalType": "address",
                    "name": "owner",
                    "type": "address"
                },
                {
                    "internalType": "address",
                    "name": "operator",
                    "type": "address"
                }
            ],
            "name": "isApprovedForAll",
            "outputs": [
                {
                    "internalType": "bool",
                    "name": "",
                    "type": "bool"
                }
            ],
            "stateMutability": "view",
            "type": "function"
        },
        {
            "inputs": [
                {
                    "internalType": "address",
                    "name": "owner",
                    "type": "address"
                },
                {
                    "internalType": "string",
                    "name": "tokenURI",
                    "type": "string"
                }
            ],
            "name": "mintNFT",
            "outputs": [],
            "stateMutability": "nonpayable",
            "type": "function"
        },
        {
            "inputs": [],
            "name": "name",
            "outputs": [
                {
                    "internalType": "string",
                    "name": "",
                    "type": "string"
                }
            ],
            "stateMutability": "view",
            "type": "function"
        },
        {
            "inputs": [],
            "name": "owner",
            "outputs": [
                {
                    "internalType": "address",
                    "name": "",
                    "type": "address"
                }
            ],
            "stateMutability": "view",
            "type": "function"
        },
        {
            "inputs": [
                {
                    "internalType": "uint256",
                    "name": "tokenId",
                    "type": "uint256"
                }
            ],
            "name": "ownerOf",
            "outputs": [
                {
                    "internalType": "address",
                    "name": "",
                    "type": "address"
                }
            ],
            "stateMutability": "view",
            "type": "function"
        },
        {
            "inputs": [],
            "name": "renounceOwnership",
            "outputs": [],
            "stateMutability": "nonpayable",
            "type": "function"
        },
        {
            "inputs": [
                {
                    "internalType": "address",
                    "name": "from",
                    "type": "address"
                },
                {
                    "internalType": "address",
                    "name": "to",
                    "type": "address"
                },
                {
                    "internalType": "uint256",
                    "name": "tokenId",
                    "type": "uint256"
                }
            ],
            "name": "safeTransferFrom",
            "outputs": [],
            "stateMutability": "nonpayable",
            "type": "function"
        },
        {
            "inputs": [
                {
                    "internalType": "address",
                    "name": "from",
                    "type": "address"
                },
                {
                    "internalType": "address",
                    "name": "to",
                    "type": "address"
                },
                {
                    "internalType": "uint256",
                    "name": "tokenId",
                    "type": "uint256"
                },
                {
                    "internalType": "bytes",
                    "name": "data",
                    "type": "bytes"
                }
            ],
            "name": "safeTransferFrom",
            "outputs": [],
            "stateMutability": "nonpayable",
            "type": "function"
        },
        {
            "inputs": [
                {
                    "internalType": "address",
                    "name": "operator",
                    "type": "address"
                },
                {
                    "internalType": "bool",
                    "name": "approved",
                    "type": "bool"
                }
            ],
            "name": "setApprovalForAll",
            "outputs": [],
            "stateMutability": "nonpayable",
            "type": "function"
        },
        {
            "inputs": [
                {
                    "internalType": "bytes4",
                    "name": "interfaceId",
                    "type": "bytes4"
                }
            ],
            "name": "supportsInterface",
            "outputs": [
                {
                    "internalType": "bool",
                    "name": "",
                    "type": "bool"
                }
            ],
            "stateMutability": "view",
            "type": "function"
        },
        {
            "inputs": [],
            "name": "symbol",
            "outputs": [
                {
                    "internalType": "string",
                    "name": "",
                    "type": "string"
                }
            ],
            "stateMutability": "view",
            "type": "function"
        },
        {
            "inputs": [
                {
                    "internalType": "uint256",
                    "name": "tokenId",
                    "type": "uint256"
                }
            ],
            "name": "tokenURI",
            "outputs": [
                {
                    "internalType": "string",
                    "name": "",
                    "type": "string"
                }
            ],
            "stateMutability": "view",
            "type": "function"
        },
        {
            "inputs": [],
            "name": "totalNFT",
            "outputs": [
                {
                    "internalType": "uint256",
                    "name": "",
                    "type": "uint256"
                }
            ],
            "stateMutability": "view",
            "type": "function"
        },
        {
            "inputs": [
                {
                    "internalType": "address",
                    "name": "from",
                    "type": "address"
                },
                {
                    "internalType": "address",
                    "name": "to",
                    "type": "address"
                },
                {
                    "internalType": "uint256",
                    "name": "tokenId",
                    "type": "uint256"
                }
            ],
            "name": "transferFrom",
            "outputs": [],
            "stateMutability": "nonpayable",
            "type": "function"
        },
        {
            "inputs": [
                {
                    "internalType": "address",
                    "name": "newOwner",
                    "type": "address"
                }
            ],
            "name": "transferOwnership",
            "outputs": [],
            "stateMutability": "nonpayable",
            "type": "function"
        }
    ],
    "bytecode": "0x608060405234801561001057600080fd5b50336040518060400160405280601d81526020017f5468696d7068752054656368205061726b204c696d69746564204e46540000008152506040518060400160405280600781526020017f5454504c4e465400000000000000000000000000000000000000000000000000815250816000908161008d919061043d565b50806001908161009d919061043d565b505050600073ffffffffffffffffffffffffffffffffffffffff168173ffffffffffffffffffffffffffffffffffffffff16036101125760006040517f1e4fbdf70000000000000000000000000000000000000000000000000000000081526004016101099190610550565b60405180910390fd5b6101218161012760201b60201c565b5061056b565b6000600760009054906101000a900473ffffffffffffffffffffffffffffffffffffffff16905081600760006101000a81548173ffffffffffffffffffffffffffffffffffffffff021916908373ffffffffffffffffffffffffffffffffffffffff1602179055508173ffffffffffffffffffffffffffffffffffffffff168173ffffffffffffffffffffffffffffffffffffffff167f8be0079c531659141344cd1fd0a4f28419497f9722a3daafe3b4186f6b6457e060405160405180910390a35050565b600081519050919050565b7f4e487b7100000000000000000000000000000000000000000000000000000000600052604160045260246000fd5b7f4e487b7100000000000000000000000000000000000000000000000000000000600052602260045260246000fd5b6000600282049050600182168061026e57607f821691505b60208210810361028157610280610227565b5b50919050565b60008190508160005260206000209050919050565b60006020601f8301049050919050565b600082821b905092915050565b6000600883026102e97fffffffffffffffffffffffffffffffffffffffffffffffffffffffffffffffff826102ac565b6102f386836102ac565b95508019841693508086168417925050509392505050565b6000819050919050565b6000819050919050565b600061033a6103356103308461030b565b610315565b61030b565b9050919050565b6000819050919050565b6103548361031f565b61036861036082610341565b8484546102b9565b825550505050565b600090565b61037d610370565b61038881848461034b565b505050565b5b818110156103ac576103a1600082610375565b60018101905061038e565b5050565b601f8211156103f1576103c281610287565b6103cb8461029c565b810160208510156103da578190505b6103ee6103e68561029c565b83018261038d565b50505b505050565b600082821c905092915050565b6000610414600019846008026103f6565b1980831691505092915050565b600061042d8383610403565b9150826002028217905092915050565b610446826101ed565b67ffffffffffffffff81111561045f5761045e6101f8565b5b6104698254610256565b6104748282856103b0565b600060209050601f8311600181146104a75760008415610495578287015190505b61049f8582610421565b865550610507565b601f1984166104b586610287565b60005b828110156104dd578489015182556001820191506020850194506020810190506104b8565b868310156104fa57848901516104f6601f891682610403565b8355505b6001600288020188555050505b505050505050565b600073ffffffffffffffffffffffffffffffffffffffff82169050919050565b600061053a8261050f565b9050919050565b61054a8161052f565b82525050565b60006020820190506105656000830184610541565b92915050565b6126548061057a6000396000f3fe608060405234801561001057600080fd5b50600436106101155760003560e01c8063715018a6116100a2578063b88d4fde11610071578063b88d4fde146102cc578063c87b56dd146102e8578063e985e9c514610318578063eacabe1414610348578063f2fde38b1461036457610115565b8063715018a61461026a5780638da5cb5b1461027457806395d89b4114610292578063a22cb465146102b057610115565b8063095ea7b3116100e9578063095ea7b3146101b657806323b872dd146101d257806342842e0e146101ee5780636352211e1461020a57806370a082311461023a57610115565b80624563791461011a57806301ffc9a71461013857806306fdde0314610168578063081812fc14610186575b600080fd5b610122610380565b60405161012f9190611a59565b60405180910390f35b610152600480360381019061014d9190611ae0565b61038a565b60405161015f9190611b28565b60405180910390f35b6101706103eb565b60405161017d9190611bd3565b60405180910390f35b6101a0600480360381019061019b9190611c21565b61047d565b6040516101ad9190611c8f565b60405180910390f35b6101d060048036038101906101cb9190611cd6565b610499565b005b6101ec60048036038101906101e79190611d16565b6104af565b005b61020860048036038101906102039190611d16565b6105b1565b005b610224600480360381019061021f9190611c21565b6105d1565b6040516102319190611c8f565b60405180910390f35b610254600480360381019061024f9190611d69565b6105e3565b6040516102619190611a59565b60405180910390f35b61027261069d565b005b61027c6106b1565b6040516102899190611c8f565b60405180910390f35b61029a6106db565b6040516102a79190611bd3565b60405180910390f35b6102ca60048036038101906102c59190611dc2565b61076d565b005b6102e660048036038101906102e19190611f37565b610783565b005b61030260048036038101906102fd9190611c21565b6107a8565b60405161030f9190611bd3565b60405180910390f35b610332600480360381019061032d9190611fba565b6108bb565b60405161033f9190611b28565b60405180910390f35b610362600480360381019061035d919061209b565b61094f565b005b61037e60048036038101906103799190611d69565b61098b565b005b6000600854905090565b6000634906490660e01b7bffffffffffffffffffffffffffffffffffffffffffffffffffffffff1916827bffffffffffffffffffffffffffffffffffffffffffffffffffffffff191614806103e457506103e382610a11565b5b9050919050565b6060600080546103fa90612126565b80601f016020809104026020016040519081016040528092919081815260200182805461042690612126565b80156104735780601f1061044857610100808354040283529160200191610473565b820191906000526020600020905b81548152906001019060200180831161045657829003601f168201915b5050505050905090565b600061048882610af3565b5061049282610b7b565b9050919050565b6104ab82826104a6610bb8565b610bc0565b5050565b600073ffffffffffffffffffffffffffffffffffffffff168273ffffffffffffffffffffffffffffffffffffffff16036105215760006040517f64a0ae920000000000000000000000000000000000000000000000000000000081526004016105189190611c8f565b60405180910390fd5b60006105358383610530610bb8565b610bd2565b90508373ffffffffffffffffffffffffffffffffffffffff168173ffffffffffffffffffffffffffffffffffffffff16146105ab578382826040517f64283d7b0000000000000000000000000000000000000000000000000000000081526004016105a293929190612157565b60405180910390fd5b50505050565b6105cc83838360405180602001604052806000815250610783565b505050565b60006105dc82610af3565b9050919050565b60008073ffffffffffffffffffffffffffffffffffffffff168273ffffffffffffffffffffffffffffffffffffffff16036106565760006040517f89c62b6400000000000000000000000000000000000000000000000000000000815260040161064d9190611c8f565b60405180910390fd5b600360008373ffffffffffffffffffffffffffffffffffffffff1673ffffffffffffffffffffffffffffffffffffffff168152602001908152602001600020549050919050565b6106a5610dec565b6106af6000610e73565b565b6000600760009054906101000a900473ffffffffffffffffffffffffffffffffffffffff16905090565b6060600180546106ea90612126565b80601f016020809104026020016040519081016040528092919081815260200182805461071690612126565b80156107635780601f1061073857610100808354040283529160200191610763565b820191906000526020600020905b81548152906001019060200180831161074657829003601f168201915b5050505050905090565b61077f610778610bb8565b8383610f39565b5050565b61078e8484846104af565b6107a2610799610bb8565b858585856110a8565b50505050565b60606107b382610af3565b5060006006600084815260200190815260200160002080546107d490612126565b80601f016020809104026020016040519081016040528092919081815260200182805461080090612126565b801561084d5780601f106108225761010080835404028352916020019161084d565b820191906000526020600020905b81548152906001019060200180831161083057829003601f168201915b50505050509050600061085e611259565b905060008151036108735781925050506108b6565b6000825111156108a85780826040516020016108909291906121ca565b604051602081830303815290604052925050506108b6565b6108b184611270565b925050505b919050565b6000600560008473ffffffffffffffffffffffffffffffffffffffff1673ffffffffffffffffffffffffffffffffffffffff16815260200190815260200160002060008373ffffffffffffffffffffffffffffffffffffffff1673ffffffffffffffffffffffffffffffffffffffff16815260200190815260200160002060009054906101000a900460ff16905092915050565b610957610dec565b60006008600081548092919061096c9061221d565b91905055905061097c83826112d9565b61098681836113d2565b505050565b610993610dec565b600073ffffffffffffffffffffffffffffffffffffffff168173ffffffffffffffffffffffffffffffffffffffff1603610a055760006040517f1e4fbdf70000000000000000000000000000000000000000000000000000000081526004016109fc9190611c8f565b60405180910390fd5b610a0e81610e73565b50565b60007f80ac58cd000000000000000000000000000000000000000000000000000000007bffffffffffffffffffffffffffffffffffffffffffffffffffffffff1916827bffffffffffffffffffffffffffffffffffffffffffffffffffffffff19161480610adc57507f5b5e139f000000000000000000000000000000000000000000000000000000007bffffffffffffffffffffffffffffffffffffffffffffffffffffffff1916827bffffffffffffffffffffffffffffffffffffffffffffffffffffffff1916145b80610aec5750610aeb8261142e565b5b9050919050565b600080610aff83611498565b9050600073ffffffffffffffffffffffffffffffffffffffff168173ffffffffffffffffffffffffffffffffffffffff1603610b7257826040517f7e273289000000000000000000000000000000000000000000000000000000008152600401610b699190611a59565b60405180910390fd5b80915050919050565b60006004600083815260200190815260200160002060009054906101000a900473ffffffffffffffffffffffffffffffffffffffff169050919050565b600033905090565b610bcd83838360016114d5565b505050565b600080610bde84611498565b9050600073ffffffffffffffffffffffffffffffffffffffff168373ffffffffffffffffffffffffffffffffffffffff1614610c2057610c1f81848661169a565b5b600073ffffffffffffffffffffffffffffffffffffffff168173ffffffffffffffffffffffffffffffffffffffff1614610cb157610c626000856000806114d5565b6001600360008373ffffffffffffffffffffffffffffffffffffffff1673ffffffffffffffffffffffffffffffffffffffff168152602001908152602001600020600082825403925050819055505b600073ffffffffffffffffffffffffffffffffffffffff168573ffffffffffffffffffffffffffffffffffffffff1614610d34576001600360008773ffffffffffffffffffffffffffffffffffffffff1673ffffffffffffffffffffffffffffffffffffffff168152602001908152602001600020600082825401925050819055505b846002600086815260200190815260200160002060006101000a81548173ffffffffffffffffffffffffffffffffffffffff021916908373ffffffffffffffffffffffffffffffffffffffff160217905550838573ffffffffffffffffffffffffffffffffffffffff168273ffffffffffffffffffffffffffffffffffffffff167fddf252ad1be2c89b69c2b068fc378daa952ba7f163c4a11628f55a4df523b3ef60405160405180910390a4809150509392505050565b610df4610bb8565b73ffffffffffffffffffffffffffffffffffffffff16610e126106b1565b73ffffffffffffffffffffffffffffffffffffffff1614610e7157610e35610bb8565b6040517f118cdaa7000000000000000000000000000000000000000000000000000000008152600401610e689190611c8f565b60405180910390fd5b565b6000600760009054906101000a900473ffffffffffffffffffffffffffffffffffffffff16905081600760006101000a81548173ffffffffffffffffffffffffffffffffffffffff021916908373ffffffffffffffffffffffffffffffffffffffff1602179055508173ffffffffffffffffffffffffffffffffffffffff168173ffffffffffffffffffffffffffffffffffffffff167f8be0079c531659141344cd1fd0a4f28419497f9722a3daafe3b4186f6b6457e060405160405180910390a35050565b600073ffffffffffffffffffffffffffffffffffffffff168273ffffffffffffffffffffffffffffffffffffffff1603610faa57816040517f5b08ba18000000000000000000000000000000000000000000000000000000008152600401610fa19190611c8f565b60405180910390fd5b80600560008573ffffffffffffffffffffffffffffffffffffffff1673ffffffffffffffffffffffffffffffffffffffff16815260200190815260200160002060008473ffffffffffffffffffffffffffffffffffffffff1673ffffffffffffffffffffffffffffffffffffffff16815260200190815260200160002060006101000a81548160ff0219169083151502179055508173ffffffffffffffffffffffffffffffffffffffff168373ffffffffffffffffffffffffffffffffffffffff167f17307eab39ab6107e8899845ad3d59bd9653f200f220920489ca2b5937696c318360405161109b9190611b28565b60405180910390a3505050565b60008373ffffffffffffffffffffffffffffffffffffffff163b1115611252578273ffffffffffffffffffffffffffffffffffffffff1663150b7a02868685856040518563ffffffff1660e01b815260040161110794939291906122ba565b6020604051808303816000875af192505050801561114357506040513d601f19601f82011682018060405250810190611140919061231b565b60015b6111c7573d8060008114611173576040519150601f19603f3d011682016040523d82523d6000602084013e611178565b606091505b5060008151036111bf57836040517f64a0ae920000000000000000000000000000000000000000000000000000000081526004016111b69190611c8f565b60405180910390fd5b805181602001fd5b63150b7a0260e01b7bffffffffffffffffffffffffffffffffffffffffffffffffffffffff1916817bffffffffffffffffffffffffffffffffffffffffffffffffffffffff19161461125057836040517f64a0ae920000000000000000000000000000000000000000000000000000000081526004016112479190611c8f565b60405180910390fd5b505b5050505050565b606060405180602001604052806000815250905090565b606061127b82610af3565b506000611286611259565b905060008151116112a657604051806020016040528060008152506112d1565b806112b08461175e565b6040516020016112c19291906121ca565b6040516020818303038152906040525b915050919050565b600073ffffffffffffffffffffffffffffffffffffffff168273ffffffffffffffffffffffffffffffffffffffff160361134b5760006040517f64a0ae920000000000000000000000000000000000000000000000000000000081526004016113429190611c8f565b60405180910390fd5b600061135983836000610bd2565b9050600073ffffffffffffffffffffffffffffffffffffffff168173ffffffffffffffffffffffffffffffffffffffff16146113cd5760006040517f73c6ac6e0000000000000000000000000000000000000000000000000000000081526004016113c49190611c8f565b60405180910390fd5b505050565b806006600084815260200190815260200160002090816113f291906124f4565b507ff8e1a15aba9398e019f0b49df1a4fde98ee17ae345cb5f6b5e2c27f5033e8ce7826040516114229190611a59565b60405180910390a15050565b60007f01ffc9a7000000000000000000000000000000000000000000000000000000007bffffffffffffffffffffffffffffffffffffffffffffffffffffffff1916827bffffffffffffffffffffffffffffffffffffffffffffffffffffffff1916149050919050565b60006002600083815260200190815260200160002060009054906101000a900473ffffffffffffffffffffffffffffffffffffffff169050919050565b808061150e5750600073ffffffffffffffffffffffffffffffffffffffff168273ffffffffffffffffffffffffffffffffffffffff1614155b1561164257600061151e84610af3565b9050600073ffffffffffffffffffffffffffffffffffffffff168373ffffffffffffffffffffffffffffffffffffffff161415801561158957508273ffffffffffffffffffffffffffffffffffffffff168173ffffffffffffffffffffffffffffffffffffffff1614155b801561159c575061159a81846108bb565b155b156115de57826040517fa9fbf51f0000000000000000000000000000000000000000000000000000000081526004016115d59190611c8f565b60405180910390fd5b811561164057838573ffffffffffffffffffffffffffffffffffffffff168273ffffffffffffffffffffffffffffffffffffffff167f8c5be1e5ebec7d5bd14f71427d1e84f3dd0314c0f7b2291e5b200ac8c7c3b92560405160405180910390a45b505b836004600085815260200190815260200160002060006101000a81548173ffffffffffffffffffffffffffffffffffffffff021916908373ffffffffffffffffffffffffffffffffffffffff16021790555050505050565b6116a583838361182c565b61175957600073ffffffffffffffffffffffffffffffffffffffff168373ffffffffffffffffffffffffffffffffffffffff160361171a57806040517f7e2732890000000000000000000000000000000000000000000000000000000081526004016117119190611a59565b60405180910390fd5b81816040517f177e802f0000000000000000000000000000000000000000000000000000000081526004016117509291906125c6565b60405180910390fd5b505050565b60606000600161176d846118ed565b01905060008167ffffffffffffffff81111561178c5761178b611e0c565b5b6040519080825280601f01601f1916602001820160405280156117be5781602001600182028036833780820191505090505b509050600082602001820190505b600115611821578080600190039150507f3031323334353637383961626364656600000000000000000000000000000000600a86061a8153600a8581611815576118146125ef565b5b049450600085036117cc575b819350505050919050565b60008073ffffffffffffffffffffffffffffffffffffffff168373ffffffffffffffffffffffffffffffffffffffff16141580156118e457508273ffffffffffffffffffffffffffffffffffffffff168473ffffffffffffffffffffffffffffffffffffffff1614806118a557506118a484846108bb565b5b806118e357508273ffffffffffffffffffffffffffffffffffffffff166118cb83610b7b565b73ffffffffffffffffffffffffffffffffffffffff16145b5b90509392505050565b600080600090507a184f03e93ff9f4daa797ed6e38ed64bf6a1f010000000000000000831061194b577a184f03e93ff9f4daa797ed6e38ed64bf6a1f0100000000000000008381611941576119406125ef565b5b0492506040810190505b6d04ee2d6d415b85acef81000000008310611988576d04ee2d6d415b85acef8100000000838161197e5761197d6125ef565b5b0492506020810190505b662386f26fc1000083106119b757662386f26fc1000083816119ad576119ac6125ef565b5b0492506010810190505b6305f5e10083106119e0576305f5e10083816119d6576119d56125ef565b5b0492506008810190505b6127108310611a055761271083816119fb576119fa6125ef565b5b0492506004810190505b60648310611a285760648381611a1e57611a1d6125ef565b5b0492506002810190505b600a8310611a37576001810190505b80915050919050565b6000819050919050565b611a5381611a40565b82525050565b6000602082019050611a6e6000830184611a4a565b92915050565b6000604051905090565b600080fd5b600080fd5b60007fffffffff0000000000000000000000000000000000000000000000000000000082169050919050565b611abd81611a88565b8114611ac857600080fd5b50565b600081359050611ada81611ab4565b92915050565b600060208284031215611af657611af5611a7e565b5b6000611b0484828501611acb565b91505092915050565b60008115159050919050565b611b2281611b0d565b82525050565b6000602082019050611b3d6000830184611b19565b92915050565b600081519050919050565b600082825260208201905092915050565b60005b83811015611b7d578082015181840152602081019050611b62565b60008484015250505050565b6000601f19601f8301169050919050565b6000611ba582611b43565b611baf8185611b4e565b9350611bbf818560208601611b5f565b611bc881611b89565b840191505092915050565b60006020820190508181036000830152611bed8184611b9a565b905092915050565b611bfe81611a40565b8114611c0957600080fd5b50565b600081359050611c1b81611bf5565b92915050565b600060208284031215611c3757611c36611a7e565b5b6000611c4584828501611c0c565b91505092915050565b600073ffffffffffffffffffffffffffffffffffffffff82169050919050565b6000611c7982611c4e565b9050919050565b611c8981611c6e565b82525050565b6000602082019050611ca46000830184611c80565b92915050565b611cb381611c6e565b8114611cbe57600080fd5b50565b600081359050611cd081611caa565b92915050565b60008060408385031215611ced57611cec611a7e565b5b6000611cfb85828601611cc1565b9250506020611d0c85828601611c0c565b9150509250929050565b600080600060608486031215611d2f57611d2e611a7e565b5b6000611d3d86828701611cc1565b9350506020611d4e86828701611cc1565b9250506040611d5f86828701611c0c565b9150509250925092565b600060208284031215611d7f57611d7e611a7e565b5b6000611d8d84828501611cc1565b91505092915050565b611d9f81611b0d565b8114611daa57600080fd5b50565b600081359050611dbc81611d96565b92915050565b60008060408385031215611dd957611dd8611a7e565b5b6000611de785828601611cc1565b9250506020611df885828601611dad565b9150509250929050565b600080fd5b600080fd5b7f4e487b7100000000000000000000000000000000000000000000000000000000600052604160045260246000fd5b611e4482611b89565b810181811067ffffffffffffffff82111715611e6357611e62611e0c565b5b80604052505050565b6000611e76611a74565b9050611e828282611e3b565b919050565b600067ffffffffffffffff821115611ea257611ea1611e0c565b5b611eab82611b89565b9050602081019050919050565b82818337600083830152505050565b6000611eda611ed584611e87565b611e6c565b905082815260208101848484011115611ef657611ef5611e07565b5b611f01848285611eb8565b509392505050565b600082601f830112611f1e57611f1d611e02565b5b8135611f2e848260208601611ec7565b91505092915050565b60008060008060808587031215611f5157611f50611a7e565b5b6000611f5f87828801611cc1565b9450506020611f7087828801611cc1565b9350506040611f8187828801611c0c565b925050606085013567ffffffffffffffff811115611fa257611fa1611a83565b5b611fae87828801611f09565b91505092959194509250565b60008060408385031215611fd157611fd0611a7e565b5b6000611fdf85828601611cc1565b9250506020611ff085828601611cc1565b9150509250929050565b600067ffffffffffffffff82111561201557612014611e0c565b5b61201e82611b89565b9050602081019050919050565b600061203e61203984611ffa565b611e6c565b90508281526020810184848401111561205a57612059611e07565b5b612065848285611eb8565b509392505050565b600082601f83011261208257612081611e02565b5b813561209284826020860161202b565b91505092915050565b600080604083850312156120b2576120b1611a7e565b5b60006120c085828601611cc1565b925050602083013567ffffffffffffffff8111156120e1576120e0611a83565b5b6120ed8582860161206d565b9150509250929050565b7f4e487b7100000000000000000000000000000000000000000000000000000000600052602260045260246000fd5b6000600282049050600182168061213e57607f821691505b602082108103612151576121506120f7565b5b50919050565b600060608201905061216c6000830186611c80565b6121796020830185611a4a565b6121866040830184611c80565b949350505050565b600081905092915050565b60006121a482611b43565b6121ae818561218e565b93506121be818560208601611b5f565b80840191505092915050565b60006121d68285612199565b91506121e28284612199565b91508190509392505050565b7f4e487b7100000000000000000000000000000000000000000000000000000000600052601160045260246000fd5b600061222882611a40565b91507fffffffffffffffffffffffffffffffffffffffffffffffffffffffffffffffff820361225a576122596121ee565b5b600182019050919050565b600081519050919050565b600082825260208201905092915050565b600061228c82612265565b6122968185612270565b93506122a6818560208601611b5f565b6122af81611b89565b840191505092915050565b60006080820190506122cf6000830187611c80565b6122dc6020830186611c80565b6122e96040830185611a4a565b81810360608301526122fb8184612281565b905095945050505050565b60008151905061231581611ab4565b92915050565b60006020828403121561233157612330611a7e565b5b600061233f84828501612306565b91505092915050565b60008190508160005260206000209050919050565b60006020601f8301049050919050565b600082821b905092915050565b6000600883026123aa7fffffffffffffffffffffffffffffffffffffffffffffffffffffffffffffffff8261236d565b6123b4868361236d565b95508019841693508086168417925050509392505050565b6000819050919050565b60006123f16123ec6123e784611a40565b6123cc565b611a40565b9050919050565b6000819050919050565b61240b836123d6565b61241f612417826123f8565b84845461237a565b825550505050565b600090565b612434612427565b61243f818484612402565b505050565b5b818110156124635761245860008261242c565b600181019050612445565b5050565b601f8211156124a85761247981612348565b6124828461235d565b81016020851015612491578190505b6124a561249d8561235d565b830182612444565b50505b505050565b600082821c905092915050565b60006124cb600019846008026124ad565b1980831691505092915050565b60006124e483836124ba565b9150826002028217905092915050565b6124fd82611b43565b67ffffffffffffffff81111561251657612515611e0c565b5b6125208254612126565b61252b828285612467565b600060209050601f83116001811461255e576000841561254c578287015190505b61255685826124d8565b8655506125be565b601f19841661256c86612348565b60005b828110156125945784890151825560018201915060208501945060208101905061256f565b868310156125b157848901516125ad601f8916826124ba565b8355505b6001600288020188555050505b505050505050565b60006040820190506125db6000830185611c80565b6125e86020830184611a4a565b9392505050565b7f4e487b7100000000000000000000000000000000000000000000000000000000600052601260045260246000fdfea26469706673582212206f9a088829a67e58c24132079dd1afb7fae1976cc73e9ed35639d6b9d037389564736f6c634300081c0033",
    "linkReferences": {},
    "deployedLinkReferences": {}
}